:020000040000FA
:10000000FE0E25007A0AE20100080808040802082A
:1000100001080908050803080B0807080F08E20192
:100020000A0809080808070806080508050804085A
:10003000040803080308020802080208010801086E
:10004000010801080108010866000F0C06008F0C6A
:100050000200430566074304CF0C0200000840007D
:1000600036000F0C0600660011073A0A0E0C260037
:100070000C0C0600530C3700F7023C0A0F0C06006C
:1000800066003107470A0D0C26000D0C0600530CC4
:100090003700F702490A0F0C060066005107540AA0
:1000A0000F0C26000E0C0600530C3700F702560A00
:1000B0000F0C060066007107610A0F0C26000B0C7E
:1000C0000600530C3700F702630A240943066D0A41
:1000D00030024307700A4304000830024307F0006F
:1000E000F602310A43050008360012020309310006
:1000F0001602300A66000F0C0600CF0C02007000DA
:10010000140C35007200E10C74094307990AB2021D
:100110000B0C92004307830A2F092F092F092F097F
:10012000F502820A7100190C3000190C30094306DF
:10013000950A7100190C3000190C3009210C360099
:10014000F602A00AB402240943079E0A7100190CA2
:100150003000190C30090102B401F404D404030C7A
:10016000F401080C31004B0C30094307E10A31035C
:10017000080C03063100F402B30A7300140C3009B2
:100180004307C80AB302200C93004306E10ABE0AE3
:100190000C0C9300030740000F0933007200FF0CA2
:1001A0003000280C7409B202D20093004307CF0A32
:1001B0007500190C30002F094307990AF502DB0A74
:1001C000920A640C3500FF0C3000FF0C3100C80CA3
:0E01D00030094307990A7102F502E70A920A04
:080200000E000D0001000000DA
:021FFE00E30FEF
:00000001FF
